:020000040000FA
:0400000081EF00F09C
:10000800A1028F028F028F0240008F0240008F02F0
:100018008F028F028F028F028F028F028F028F0250
:100028008F024000400040008F028F028F028F0233
:100038008F028F028F029A024C028F028F028F0268
:100048008F028F028F028F02400040008F028F02C2
:100058008F028F028F0240008F028F028F028F0261
:100068008F028F028F028F028F028F028F028F0200
:100078008F028F028F028F0240008F028F028F0241
:100088008F028F028F028F028F028F028F028F02E0
:100098008F028F028F028F0240008F0240004000C3
:1000A8008F028F028F028F028F028F028F028F02C0
:1000B8008F028F028F028F028F028F028F028F02B0
:1000C8008F028F028F028F028F028F028F028F02A0
:1000D8008F028F028F028F028F028F028F028F0290
:1000E80040008F028F028F02400040004000400015
:1000F8008F028F028F028F02FF00B4EF03F0000E11
:10010800566ECFA08AEF00F08CEF00F0C4EF00F03D
:10011800CFA291EF00F093EF00F0C4EF00F0000ED3
:10012800406E090E3F6E000E3E6E000E3D6E000ED4
:100138003C6E000E3B6E000E446E000E286E1A0ECA
:10014800276E000E3A6E000E396E000E2D6E000EF0
:100158002E6E000E2F6E000E306E000E4C6E000ECE
:100168004B6E000E4D6E6DEC04F0060E516E130EC4
:10017800506EAE0EE82EFED7502EFCD7512EFAD771
:10018800E80E3B1807E1030E3C18D8A4CEEF00F0A8
:10019800D0EF00F0D6EF00F0000E3C6E000E3B6E84
:1001A8003D4A3E2A3C0E3D183E10D8A4DEEF00F032
:1001B800E0EF00F0E6EF00F0000E3E6E000E3D6E40
:1001C8003F4A402A3C0E3F184010D8A4EEEF00F0FA
:1001D800F0EF00F0F6EF00F0000E406E000E3F6EFC
:1001E800414A422A0F0E41184210D8A4FEEF00F0EF
:1001F80000EF01F004EF01F0000E426E000E416EB8
:100208003F50400DF3503D24C06E3FC550F540C5EA
:1002180051F5D89051325032D89051325032505016
:10022800BE6E3B4A3C2ACFA21CEF01F01EEF01F044
:1002380028EF01F0020E446E000E4C6E000E4B6E5D
:10024800000E4D6E6DEC04F0020E4418D8A42FEF8A
:1002580001F031EF01F01FEF02F0020E39183A10E9
:10026800D8B439EF01F03BEF01F05AEF01F0080E76
:1002780039183A10D8B443EF01F045EF01F05AEFBE
:1002880001F00D0E39183A10D8B44DEF01F04FEFC8
:1002980001F05AEF01F03A5009E10F0E395CD8A08D
:1002A80058EF01F05AEF01F05CEF01F0010E566EC5
:1002B800D8903934D96E3A34DA6E010ED926050E43
:1002C800DA22610078F350F5610074F351F5CE0E2F
:1002D8005024526EFF0E5120536E546A556A2D50A9
:1002E800525C2E5053582F50545830505558D8B04F
:1002F80080EF01F082EF01F08AEF01F05604D8A4F4
:1003080088EF01F08AEF01F09DEF01F0D8903934C1
:10031800D96E3A34DA6EB40ED926050EDA226100A7
:1003280078F34BF5610074F34CF5010E4D6E6DECEE
:1003380004F0D8903934D96E3A34DA6E010ED926E1
:10034800050EDA22610078F350F5610074F351F577
:10035800CE0E5024526EFF0E5120536E546A556AC9
:1003680052502D5C53502E5854502F5855503058D9
:10037800D8A0C1EF01F0C3EF01F0D3EF01F05604AC
:10038800D8B4C9EF01F0CBEF01F0D3EF01F0000EC4
:100398004C6E000E4B6E010E4D6E6DEC04F0D89055
:1003A8003934D96E3A34DA6E010ED926050EDA22BE
:1003B800610078F350F5610074F351F55050526EB6
:1003C8005150536E546A556A52502D5C53502E58F2
:1003D80054502F5855503058D8A0F5EF01F0F7EF8A
:1003E80001F001EF02F0394A3A2A000E2D6E000E94
:1003F8002E6E000E2F6E000E306E140E39183A1045
:10040800D8A409EF02F00BEF02F019EF02F0000E8A
:100418003A6E000E396E000E446E000E4C6E000EE1
:100428004B6E000E4D6E6DEC04F0010E2D26000E85
:100438002E222F223022CFA024EF02F026EF02F046
:1004480028EF02F0010E446E4404D8A42EEF02F007
:1004580030EF02F033EF03F0070E27182810D8B456
:1004680038EF02F03AEF02F04EEF02F00D0E2718C7
:100478002810D8B442EF02F044EF02F04EEF02F039
:100488000E0E27182810D8A44CEF02F04EEF02F0F9
:1004980050EF02F0010E566E170E27182810D8B428
:1004A80058EF02F05AEF02F06EEF02F0210E271813
:1004B8002810D8B462EF02F064EF02F06EEF02F099
:1004C800220E27182810D8A46CEF02F06EEF02F065
:1004D80070EF02F0010E566ED8902734D96E28348A
:1004E800DA6E600ED926050EDA22610078F350F52F
:1004F800610074F351F5CE0E5024526EFF0E512058
:10050800536E546A556A2D50525C2E5053582F50D2
:10051800545830505558D8B094EF02F096EF02F086
:100528009EEF02F05604D8A49CEF02F09EEF02F072
:10053800B1EF02F0D8902734D96E2834DA6E000E65
:10054800D926060EDA22610078F34BF5610074F3C0
:100558004CF5010E4D6E6DEC04F0D8902734D96E31
:100568002834DA6E600ED926050EDA22610078F397
:1005780050F5610074F351F5CE0E5024526EFF0E03
:100588005120536E546A556A52502D5C53502E5860
:1005980054502F5855503058D8A0D5EF02F0D7EF07
:1005A80002F0E7EF02F05604D8B4DDEF02F0DFEF17
:1005B80002F0E7EF02F0000E4C6E000E4B6E010EDB
:1005C8004D6E6DEC04F0D8902734D96E2834DA6E6D
:1005D800600ED926050EDA22610078F350F5610025
:1005E80074F351F55050526E5150536E546A556A17
:1005F80052502D5C53502E5854502F585550305847
:10060800D8A009EF03F00BEF03F015EF03F0274A2A
:10061800282A000E2D6E000E2E6E000E2F6E000E74
:10062800306E290E27182810D8A41DEF03F01FEFED
:1006380003F02DEF03F0000E286E1A0E276E000E41
:10064800446E000E4C6E000E4B6E000E4D6E6DEC3F
:1006580004F0010E2D26000E2E222F223022120029
:10066800808386898C8F9295989B9EA2A5A7AAAD18
:10067800B0B3B6B9BCBEC1C4C6C9CBCED0D3D5D72A
:10068800DADCDEE0E2E4E6E8EAEBEDEEF0F1F3F4E2
:10069800F5F6F8F9FAFAFBFCFDFDFEFEFEFFFFFF9A
:1006A800FFFFFFFFFEFEFEFDFDFCFBFAFAF9F8F680
:1006B800F5F4F3F1F0EEEDEBEAE8E6E4E2E0DEDC97
:1006C800DAD7D5D3D0CECBC9C6C4C1BEBCB9B6B3B0
:1006D800B0ADAAA7A5A29E9B9895928F8C89868378
:1006E800807C797673706D6A6764615D5A5855527B
:1006F8004F4C494643413E3B393634312F2C2A284A
:100708002523211F1D1B1917151412110F0E0C0B71
:100718000A09070605050403020201010100000099
:100728000000000001010102020304050506070993
:100738000A0B0C0E0F1112141517191B1D1F21235C
:1007480025282A2C2F313436393B3E414346494C23
:100758004F5255585A5D6164676A6D707376797C3B
:10076800680EF66E060EF76E000EF86E01EE00F3D8
:1007780010EE00F10900F5C4EEF4E550E150FAE19D
:10078800E250F8E1860EF66E080EF76E000EF86E6F
:1007980001EE00F210EE54F00900F5C4EEF4E55055
:1007A800E150FAE10C0EF66E080EF76E000EF86EC8
:1007B80001EE60F110EE7AF00900F5C4EEF4E550B0
:1007C800E150FAE1F60EF66E090EF76E000EF86EBD
:1007D80001EE01F110EE28F00900F5C4EEF4E55041
:1007E800E150FAE101EE29F1210EEE6AE806FDE199
:1007F8000401080E5D6F000E5E6F000E5F6F000152
:10080800CFEF04F0D000A001A0017002D000D0000A
:10081800D000A0017002D000A001A0017002D00099
:10082800D000D000A001A001D000D000D000D0009E
:10083800D000D000A001A0014003A001D000D0004A
:10084800150115011501E004D0007002D00038012F
:100858007002D000800680062200220022002200BA
:10086800000028002800280026002600280028006C
:100878002800280028002D00320032002D00220018
:100888002200220022002800280028002600260036
:1008980028002800280028002D0032002D00000024
:1008A80000003200320028002D0032002D002D00FB
:1008B8003C00000000003200320028002D00320009
:1008C8002D003200350000003200350032003200C1
:1008D800000003011E91800E4C5CD8A076EF04F056
:1008E80078EF04F07BEF04F07F0E4C6E4B684B1CE6
:1008F8004E6E4C1C4F6E4F50476E4EC546F561000C
:100908001CF51DF3610018F51CF348904D50D8B440
:1009180090EF04F092EF04F093EF04F04880B19860
:06092800A1881E811200EF
:1009300061001CF51DF3610018F51CF3000E432443
:10094000D96EDA6A070EDA22DF5000017D6F040EDD
:100950004326B19848B0AFEF04F0B1EF04F0B4EF24
:1009600004F0A19803011E911100000E356E000ED7
:10097000366E000E376E000E386E000E316E000EB1
:10098000326E000E336E000E346E7D0E0301236F47
:10099000010E266FB196F00E246FA1861200498ECB
:1009A00044EC05F0E5EC04F03DEC05F0B5EC04F0AA
:1009B0000FEC05F0499E83EC00F0BE9E2BEC05F099
:1009C000BE8EDBEF04F081EF00F0000E0401006F3B
:1009D000000EC66E000E106F000EC86E000EC06EC8
:1009E000000E086FC768000EBF6EA00E00017F6F7B
:1009F000000E7D6F1200D000D000D000A001D0000A
:100A0000D000D000D000A0017002D000D000A00122
:100A1000D000A001D000D000D000D0001A00C00E3D
:100A2000BE16900E03011A6F540E1B6F000E1F6F3F
:0A0A3000010E216F310E1E6F12003F
:100A3C00610060F34AF5010E2926000E2A222B22B2
:100A4C002C22610028F5D8F41100498C49BC31EFF7
:100A5C0005F033EF05F02CEF05F01200B196499C30
:100A6C00010E3526000E3622372238221100D68A86
:060A7C00D68ED68C12009C
:060A8400AE90110012000B
:020000040020DA
:10000000FF0FFF0FFF0FFF0FFF0FFF0FFF0FFF0F80
:10001000FF0FFF0FFF0FFF0FFF0FFF0FFF0FFF0F70
:020000040030CA
:0A0000008CFEFFFC9FFFFFFFFFFFD7
:00000001FF
